:020000020000FC
:1000000010E0002707BB04BB0FEF0ABB01BB12BB0C
:1000100006B30117E9F390E0A0E0B4E09A95F1F798
:10002000AA95E1F7BA95D1F746B306B30117E9F7F8
:100030000C943D0003B30117E9F390E0A0E0B4E0B5
:100040009A95F1F7AA95E1F7BA95D1F763B303B39F
:100050000117E9F760FF0C94460060FD0C94550011
:1000600061FD0C94670062FD0C94A60063FD0C9486
:10007000E30066FD72BB67FD72BB4BBB06B30117A5
:1000800071F403B3011769F40C943D004BBB06B344
:10009000011749F403B3011721F40C9446000C94A2
:1000A00007000C941A000C942D004427772739F090
:1000B00010F00C94650067FD73950C94590066FD73
:1000C000739566FD73950C9458000C94390006B333
:1000D0000117E9F390E0A0E0B4E09A95F1F7AA9552
:1000E000E1F7BA95D1F756B306B30117E9F757FF11
:1000F00016C05F77511741F15A954595772739F02A
:1001000010F00C948D0067FD73950C94810066FDD2
:10011000739566FD73950C9480000C947A005117CA
:1001200099F05A95440F772739F010F00C94A200FB
:1001300067FD73950C94960066FD739566FD739547
:100140000C9495000C948F000C94390006B30117A1
:10015000E9F390E0A0E0B4E09A95F1F7AA95E1F711
:10016000BA95D1F756B306B30117E9F757FF16C092
:100170005F77511749F35A95440F772739F010F0FC
:100180000C94CC0067FD73950C94C00066FD7395CC
:1001900066FD73950C94BF000C94B9005117A1F241
:1001A0005A954695772739F010F00C94E10067FDD9
:1001B00073950C94D50066FD739566FD73950C944C
:1001C000D4000C94CE0006B30117E9F390E0A0E050
:1001D000B4E09A95F1F7AA95E1F7BA95D1F756B33D
:1001E00006B30117E9F7142E252E30E81322232237
:1001F00012244523411711F04F774129772739F011
:1002000010F00C940D0167FD73950C94010166FDCF
:0E021000739566FD73950C9400010C943900F3
:00000001FF
